:100000000C9461000C947E000C947E000C947E0095
:100010000C947E000C947E000C947E000C947E0068
:100020000C947E000C947E000C947E000C947E0058
:100030000C947E000C947E000C947E000C947E0048
:100040000C948F010C947E000C947E000C947E0026
:100050000C947E000C947E000C947E000C947E0028
:100060000C947E000C947E0000000000230026000B
:10007000290000000000240027002A0000000000E2
:10008000250028002B0004040404040404040202D4
:100090000202020203030303030301020408102007
:1000A0004080010204081020010204081020000012
:1000B0000008000201000003040700000000000027
:1000C000000011241FBECFEFD8E0DEBFCDBF11E08E
:1000D000A0E0B1E0E2E9F5E002C005900D92A230A7
:1000E000B107D9F721E0A2E0B1E001C01D92AD3027
:1000F000B207E1F70E94D9010C94C7020C940000EA
:10010000833081F028F4813099F08230A1F0089595
:100110008730A9F08830B9F08430D1F48091800024
:100120008F7D03C0809180008F7780938000089539
:1001300084B58F7702C084B58F7D84BD089580918A
:10014000B0008F7703C08091B0008F7D8093B000A6
:1001500008951F93CF93DF93E9EBF0E09491E5EAE4
:10016000F0E0D491E1E9F0E0C491CC23D1F0182F74
:10017000992319F0892F0E948000EC2FF0E0EE0FF8
:10018000FF1FE458FF4FA591B4919FB7F894111148
:1001900004C08C91D095D82302C0EC91DE2BDC9367
:1001A0009FBFDF91CF911F910895CF93DF9390E090
:1001B000FC01E656FF4F2491FC01EA57FF4F849162
:1001C000882361F190E0880F991FFC01EE58FF4FE2
:1001D000C591D491FC01E458FF4FA591B4916111F0
:1001E00009C09FB7F8948881209582238883EC9179
:1001F0002E230BC0623061F49FB7F8948881322FB0
:10020000309583238883EC912E2B2C939FBF06C0BF
:100210008FB7F894E8812E2B28838FBFDF91CF9181
:100220000895CF93DF93EC0161E08BE00E94D5004D
:10023000209711F480E004C0CF3FD10529F481E07C
:10024000DF91CF910C94A900E9EBF0E0E491E33069
:10025000F9F048F4E130B9F0E230A1F584B58062FC
:1002600084BDC8BD34C0E730E9F0E83019F1E430AE
:1002700049F580918000806280938000D0938B004C
:10028000C0938A0024C084B5806884BDC7BD1FC0E8
:1002900080918000806880938000D0938900C09313
:1002A000880015C08091B00080688093B000C09332
:1002B000B3000DC08091B00080628093B000C09305
:1002C000B40005C0C038D1050CF0B9CFB3CFDF9171
:1002D000CF9108953FB7F8948091090190910A0158
:1002E000A0910B01B0910C0126B5A89B05C02F3F32
:1002F00019F00196A11DB11D3FBFBA2FA92F982F4C
:100300008827820F911DA11DB11DBC01CD0142E0C6
:10031000660F771F881F991F4A95D1F708951F927E
:100320000F920FB60F9211242F933F938F939F93A9
:10033000AF93BF938091050190910601A0910701B1
:10034000B09108013091040123E0230F2D3720F4F0
:100350000196A11DB11D05C026E8230F0296A11D1F
:10036000B11D209304018093050190930601A09391
:100370000701B09308018091090190910A01A091B1
:100380000B01B0910C010196A11DB11D80930901D3
:1003900090930A01A0930B01B0930C01BF91AF9110
:1003A0009F918F913F912F910F900FBE0F901F90B3
:1003B0001895789484B5826084BD84B5816084BDCD
:1003C00085B5826085BD85B5816085BD80916E00F3
:1003D000816080936E001092810080918100826024
:1003E0008093810080918100816080938100809161
:1003F00080008160809380008091B1008460809350
:10040000B1008091B00081608093B00080917A004B
:10041000846080937A0080917A00826080937A0071
:1004200080917A00816080937A0080917A00806860
:1004300080937A001092C10061E08BE00E94D500A9
:1004400060E08CE00E94D5002AEB222E20E0322EC4
:1004500036EA832E30E0932EC2E9D0E000E010E0CF
:100460004FE7A42EB12CF1018491F401F490FE0128
:10047000E490EE2009F488C081110E948000EE2DE6
:10048000F0E0EE0FFF1FE859FF4FA591B4918C915A
:10049000F82209F479C08091020190910301E09063
:1004A0000001F09001018F3091053CF4FFEFEF1651
:1004B000F10409F0A4F4C70120C0409784F02FEFA5
:1004C000E216F10409F05CF4C7010E94110180E119
:1004D000E80EF11CF0920101E09200011FC081E0E2
:1004E00090E020910001309101012F3F310541F052
:1004F0003CF0019739F480E090E00E9411010EC0B9
:10050000892B61F480E090E00E94110110920301B8
:1005100010920201B0920101A092000180910201AB
:1005200090910301019690930301809302010E9430
:100530006A012B013C0188ECC82ED12CE12CF12C56
:100540000E946A01DC01CB0184199509A609B7094B
:10055000883E9340A105B10598F3E1E0CE1AD10899
:10056000E108F108F8EE4F0EF3E05F1E611C711C0C
:10057000C114D104E104F10419F70115110509F4BE
:1005800072CF0E9400006FCF80E090E0AACFF89475
:02059000FFCF9B
:020592007F00E8
:00000001FF
