:100000000C9462000C948A000C948A000C948A0070
:100010000C948A000C948A000C948A000C948A0038
:100020000C948A000C948A000C948A000C948A0028
:100030000C948A000C948A000C948A000C948A0018
:100040000C9447020C948A000C94B7020C94910211
:100050000C948A000C948A000C948A000C948A00F8
:100060000C948A000C948A000000000023002600F3
:10007000290000000000240027002A0000000000E2
:10008000250028002B0004040404040404040202D4
:100090000202020203030303030301020408102007
:1000A0004080010204081020010204081020000012
:1000B0000008000201000003040700000000000027
:1000C0000000C10511241FBECFEFD8E0DEBFCDBFB9
:1000D00011E0A0E0B1E0E2EBF0E102C005900D928A
:1000E000A437B107D9F722E0A4E7B1E001C01D921F
:1000F000AE31B207E1F710E0C2E6D0E004C02197CC
:10010000FE010E944C08C136D107C9F70E942E0398
:100110000C9457080C94000090E0FC01E255FF4F4E
:100120002491FC01E656FF4F3491FC01EA57FF4F42
:10013000E491EE2309F43CC0222339F1233091F0FD
:1001400038F42130A9F0223001F584B58F7D12C03A
:10015000273091F02830A1F02430B9F4809180004C
:100160008F7D03C0809180008F77809380000DC0C9
:1001700084B58F7784BD09C08091B0008F7703C0AC
:100180008091B0008F7D8093B000F0E0EE0FFF1FF4
:10019000E458FF4FA591B4919FB7F894611104C042
:1001A0008C913095382302C0EC913E2B3C939FBF3D
:1001B0000895CF93DF9390E0FC01E656FF4F249122
:1001C000FC01EA57FF4F8491882361F190E0880F8A
:1001D000991FFC01EE58FF4FC591D491FC01E458E2
:1001E000FF4FA591B491611109C09FB7F894888120
:1001F000209582238883EC912E230BC0623061F41A
:100200009FB7F8948881322F309583238883EC91AF
:100210002E2B2C939FBF06C08FB7F894E8812E2B0E
:1002200028838FBFDF91CF910895CF92DF92EF9215
:10023000FF920F931F93CF93DF936C017A018B0191
:10024000C0E0D0E0CE15DF0581F0D8016D918D01C1
:10025000D601ED91FC910190F081E02DC601099548
:10026000892B11F02196EECF7E01C701DF91CF914E
:100270001F910F91FF90EF90DF90CF900895089518
:1002800080E090E00895FC01538D448D252F30E0EF
:10029000842F90E0821B930B541710F0CF96089593
:1002A00001970895FC01918D828D981761F0828DE0
:1002B000DF01A80FB11D5D968C91928D9F5F9F739A
:1002C000928F90E008958FEF9FEF0895FC01918D3C
:1002D000828D981731F0828DE80FF11D858D90E0A9
:1002E00008958FEF9FEF0895FC01918D228D892F46
:1002F00090E0805C9F4F821B91098F73992708952E
:1003000081E891E00E94740121E0892B09F420E04A
:10031000822F0895FC01848DDF01A80FB11DA35A1F
:10032000BF4F2C91848D90E001968F739927848F15
:10033000A689B7892C93A089B1898C918370806438
:100340008C93938D848D981306C00288F389E02DD9
:1003500080818F7D80830895EF92FF920F931F938A
:10036000CF93DF93EC0181E0888F9B8D8C8D981368
:1003700005C0E889F989808185FD26C0F62E0B8DA0
:1003800010E00F5F1F4F0F731127E02E8C8DE812C6
:100390000CC00FB607FCFACFE889F989808185FF88
:1003A000F5CFCE010E948A01F1CF8B8DFE01E80FBF
:1003B000F11DE35AFF4FF0829FB7F8940B8FEA8943
:1003C000FB89808180620AC09FB7F894EE89FF891B
:1003D0006083E889F98980818370806480839FBF0E
:1003E00081E090E0DF91CF911F910F91FF90EF900E
:1003F0000895CF93DF93EC01888D8823C9F0EA89B3
:10040000FB89808185FD05C0A889B9898C9186FD0D
:100410000FC00FB607FCF5CF808185FFF2CFA8890A
:10042000B9898C9185FFEDCFCE010E948A01E7CF7B
:10043000DF91CF91089580E090E0892B29F00E9410
:10044000800181110C9400000895009769F0FC016F
:1004500001900020E9F73197AF01481B590BBC010F
:1004600081E891E00C94150180E090E00895CF932D
:10047000DF930E942502EC0182E191E00E942502B7
:100480008C0F9D1FDF91CF9108950E9452081F92FB
:100490000F920FB60F9211242F933F938F939F9338
:1004A000AF93BF9380917D0190917E01A0917F01D8
:1004B000B091800130917C0123E0230F2D3720F48F
:1004C0000196A11DB11D05C026E8230F0296A11DAE
:1004D000B11D20937C0180937D0190937E01A093B8
:1004E0007F01B09380018091780190917901A09172
:1004F0007A01B0917B010196A11DB11D8093780115
:1005000090937901A0937A01B0937B01BF91AF9151
:100510009F918F913F912F910F900FBE0F901F9041
:1005200018951F920F920FB60F9211242F933F939D
:100530004F935F936F937F938F939F93AF93BF93EB
:10054000EF93FF9381E891E00E948A01FF91EF9180
:10055000BF91AF919F918F917F916F915F914F91DB
:100560003F912F910F900FBE0F901F9018951F92E3
:100570000F920FB60F9211242F938F939F93EF93A7
:10058000FF93E0919101F09192018081E0919701B8
:10059000F091980182FD12C0908180919A018F5F45
:1005A0008F7320919B01821751F0E0919A01F0E046
:1005B000EF57FE4F958F80939A0101C08081FF9184
:1005C000EF919F918F912F910F900FBE0F901F90E1
:1005D0001895CF92DF92EF92FF920F931F93E82F1F
:1005E000F92F05C0015011092109310961F19081EC
:1005F00096239417B9F305C0015011092109310957
:1006000011F1908196239413F7CFC12CD12CE12CBA
:10061000F12C0AC08FEFC81AD80AE80AF80A0C159C
:100620001D052E053F0579F080818623841791F3FF
:100630006C2D7D2D8E2D9F2D1F910F91FF90EF9092
:10064000DF90CF90089560E070E080E090E01F912F
:100650000F91FF90EF90DF90CF900895CF93DF93AD
:10066000CDB7DEB7A2970FB6F894DEBF0FBECDBFF1
:10067000789484B5826084BD84B5816084BD85B57D
:10068000826085BD85B5816085BD80916E00816089
:1006900080936E001092810080918100826080932F
:1006A0008100809181008160809381008091800031
:1006B0008160809380008091B10084608093B1005C
:1006C0008091B00081608093B00080917A00846056
:1006D00080937A0080917A00826080937A00809182
:1006E0007A00816080937A0080917A00806880939C
:1006F0007A001092C10061E085E00E94D90061E0BB
:100700008BE00E94D90061E08AE00E94D90061E09C
:1007100089E00E94D90061E088E00E94D90060E091
:1007200083E00E94D900E0919101F091920182E072
:100730008083E0918D01F0918E011082E0918F0114
:10074000F09190018FEC808310929901E0919501D6
:10075000F091960186E08083E0919301F0919401FD
:10076000808180618083E0919301F0919401808188
:1007700088608083E0919301F0919401808180688A
:100780008083E0919301F091940180818F7D80833B
:100790002AE0822E912CA12CB12C60E085E00E94F1
:1007A0008C0083E090E00197F1F761E085E00E9422
:1007B0008C0083E290E00197F1F760E085E00E9411
:1007C0008C00EDE9F0E06491E9E8F0E08491E82F35
:1007D000F0E0EE0FFF1FE859FF4F8591949100E480
:1007E00012E42FE030E0462F0E94E9026115710506
:1007F0008105910549F0DC01CB010196A11DB11DD8
:10080000BC01CD019F7003C060E070E0CB010E948D
:10081000030726E933E44BE05DE30E94B80720E0DC
:1008200030E443E854E40E946006609374017093DE
:1008300075018093760190937701F0E4F0937C004A
:1008400080917A00806480937A0080917A0086FD9E
:10085000FCCF809178008091790085E191E00E9441
:100860002502C0907401D0907501E0907601F0905F
:100870007701A7019601C701B6010E9425088823C8
:1008800019F088E291E01AC026013701E89477F860
:100890002FEF3FEF4FE75FE7C301B2010E9425084A
:1008A00081110FC02FEF3FEF4FE75FE7C301B201A8
:1008B0000E945B0618162CF48CE291E00E9425023F
:1008C0009BC02FEF3FEF4FE75FE4C701B6010E94E7
:1008D000B30718161CF480E391E0F0CF2FEF3FEF41
:1008E0004FE75FECC701B6010E945B0687FDF3CFBF
:1008F00020E030E0A901C701B6010E945B0687FF36
:1009000009C06DE281E891E00E94AC01F7FAF09431
:10091000F7F8F0942AE037ED43EA5BE3C701B6014C
:100920000E94EF052B013C010E94D2066B017C0165
:100930000E9401079B01AC01C301B2010E94EE05B8
:100940001B012C0119A28E010F5D1F4F0AA3712EEE
:10095000C701B601A50194010E942A0869017A0124
:10096000605DF80162938F01232B242B252B81F7E7
:10097000CF010E9425026EE281E891E00E94AC0165
:1009800083E0F82EFA94FF20B9F120E030E040E255
:1009900051E4C201B1010E94B8071B012C010E9461
:1009A000D2069B0140E050E019A20AA1172D662E45
:1009B000C32ED42EE52ECA01B901A50194010E94CF
:1009C0002A08605DF80162938F0121153105410508
:1009D000510589F7CF010E942502662D7C2D8D2DB2
:1009E0009E2D0E9401079B01AC01C201B1010E9432
:1009F000EE051B012C01C6CF84E391E00E94370273
:100A0000C0907401D0907501E0907601F09077016C
:100A100020E030E040E050E4C701B6010E945B06F0
:100A2000811113C061E08BE00E948C0061E08AE0DC
:100A30000E948C0061E089E00E948C0061E088E007
:100A40000E948C0087E391E01CC020E030E040EC85
:100A50005FE3C701B6010E94B3071816DCF460E03B
:100A60008BE00E948C0061E08AE00E948C0061E0D3
:100A700089E00E948C0061E088E00E948C0087E59C
:100A800091E00E94370281E491E00E9437028DE4F8
:100A900091E045C020E030E040E85FE3C701B601E7
:100AA0000E94B3071816BCF460E08BE00E948C0033
:100AB00060E08AE00E948C0061E089E00E948C0086
:100AC00061E088E00E948C0087E591E00E94370297
:100AD00080E691E0DACF20E030E040E05FE3C7015C
:100AE000B6010E94B3071816FCF460E08BE00E9488
:100AF0008C0060E08AE00E948C0060E089E00E9447
:100B00008C0061E088E00E948C0087E591E00E9403
:100B1000370280E691E00E9437028BE691E00E9466
:100B2000370282E491E028C020E030E040E05FE35B
:100B3000C701B6010E945B06181604F160E08BE065
:100B40000E948C0060E08AE00E948C0060E089E0F6
:100B50000E948C0060E088E00E948C0087E591E0B4
:100B60000E94370280E691E00E9437028BE691E016
:100B70000E94370281E691E00E9437020E941B0228
:100B80000CCEE1E8F1E01382128288EE93E0A0E05F
:100B9000B0E084839583A683B78384E091E091835A
:100BA000808385EC90E09587848784EC90E097873C
:100BB000868780EC90E0918B808B81EC90E0938B2A
:100BC000828B82EC90E0958B848B86EC90E0978B07
:100BD000868B118E128E138E148E08955058BB275B
:100BE000AA270E9406060C9479070E946B0738F02A
:100BF0000E94720720F039F49F3F19F426F40C94F8
:100C000068070EF4E095E7FB0C946207E92F0E9459
:100C10008A0758F3BA17620773078407950720F00D
:100C200079F4A6F50C94AC070EF4E0950B2EBA2FD0
:100C3000A02D0B01B90190010C01CA01A0011124E2
:100C4000FF27591B99F0593F50F4503E68F11A168E
:100C5000F040A22F232F342F4427585FF3CF46951F
:100C600037952795A795F0405395C9F77EF41F1641
:100C7000BA0B620B730B840BBAF09150A1F0FF0F0B
:100C8000BB1F661F771F881FC2F70EC0BA0F621FF7
:100C9000731F841F48F4879577956795B795F795E7
:100CA0009E3F08F0B0CF9395880F08F09927EE0F7C
:100CB0009795879508950E943E0708F481E008956E
:100CC0000E9474060C9479070E94720758F00E94E3
:100CD0006B0740F029F45F3F29F00C946207511133
:100CE0000C94AD070C9468070E948A0768F3992357
:100CF000B1F3552391F3951B550BBB27AA27621718
:100D00007307840738F09F5F5F4F220F331F441F24
:100D1000AA1FA9F335D00E2E3AF0E0E832D0915058
:100D20005040E695001CCAF72BD0FE2F29D0660F45
:100D3000771F881FBB1F261737074807AB07B0E888
:100D400009F0BB0B802DBF01FF2793585F4F3AF08E
:100D50009E3F510578F00C9462070C94AD075F3FFD
:100D6000E4F3983ED4F3869577956795B795F79514
:100D70009F5FC9F7880F911D9695879597F90895FC
:100D8000E1E0660F771F881FBB1F62177307840798
:100D9000BA0720F0621B730B840BBA0BEE1F88F7A7
:100DA000E09508950E94920788F09F5798F0B92F18
:100DB0009927B751B0F0E1F0660F771F881F991F90
:100DC0001AF0BA95C9F714C0B13091F00E94AC077F
:100DD000B1E008950C94AC07672F782F8827B85F8F
:100DE00039F0B93FCCF3869577956795B395D9F7E8
:100DF0003EF490958095709561957F4F8F4F9F4FF2
:100E00000895E89409C097FB3EF4909580957095FD
:100E100061957F4F8F4F9F4F9923A9F0F92F96E946
:100E2000BB279395F695879577956795B795F111BB
:100E3000F8CFFAF4BB0F11F460FF1BC06F5F7F4F58
:100E40008F4F9F4F16C0882311F096E911C077236A
:100E500021F09EE8872F762F05C0662371F096E873
:100E6000862F70E060E02AF09A95660F771F881F42
:100E7000DAF7880F9695879597F90895990F0008E6
:100E8000550FAA0BE0E8FEEF16161706E807F9075C
:100E9000C0F012161306E407F50798F0621B730BF7
:100EA000840B950B39F40A2661F0232B242B252B78
:100EB00021F408950A2609F4A140A6958FEF811D1B
:100EC000811D089597F99F6780E870E060E00895BC
:100ED0009FEF80EC089500240A9416161706180652
:100EE0000906089500240A9412161306140605062E
:100EF0000895092E0394000C11F4882352F0BB0FBF
:100F000040F4BF2B11F460FF04C06F5F7F4F8F4F21
:100F10009F4F089557FD9058440F551F59F05F3F5C
:100F200071F04795880F97FB991F61F09F3F79F00B
:100F300087950895121613061406551FF2CF46958D
:100F4000F1DF08C0161617061806991FF1CF86950F
:100F50007105610508940895E894BB2766277727F3
:100F6000CB0197F908950E943E0708F48FEF08958A
:100F70000E94CB070C9479070E946B0738F00E94FF
:100F8000720720F0952311F00C9462070C94680707
:100F900011240C94AD070E948A0770F3959FC1F34A
:100FA000950F50E0551F629FF001729FBB27F00D17
:100FB000B11D639FAA27F00DB11DAA1F649F66276C
:100FC000B00DA11D661F829F2227B00DA11D621FBB
:100FD000739FB00DA11D621F839FA00D611D221F75
:100FE000749F3327A00D611D231F849F600D211D59
:100FF000822F762F6A2F11249F5750409AF0F1F0DC
:1010000088234AF0EE0FFF1FBB1F661F771F881F44
:1010100091505040A9F79E3F510580F00C94620713
:101020000C94AD075F3FE4F3983ED4F38695779533
:101030006795B795F795E7959F5FC1F7FE2B880FEA
:10104000911D9695879597F908950E943E07880B04
:10105000990B0895A1E21A2EAA1BBB1BFD010DC01E
:10106000AA1FBB1FEE1FFF1FA217B307E407F50758
:1010700020F0A21BB30BE40BF50B661F771F881F34
:10108000991F1A9469F760957095809590959B01CA
:10109000AC01BD01CF010895EE0FFF1F0590F49143
:1010A000E02D099481E090E0F8940C945708F894AE
:0210B000FFCF70
:1010B20000000000AC0115014301F9017401520165
:1010C20066010D0A0044697374616E6365204D65A3
:1010D2006173757265643D006E616E00696E6600D3
:1010E2006F766600636D003220436D204869676841
:1010F20000312E3520436D20486967680031204356
:101102006D2048696768003220436D204C4F5700BC
:10111200312E3520436D204C4F57003120436D2036
:041122004C4F5700D7
:107E0000112484B714BE81FFF0D085E080938100F7
:107E100082E08093C00088E18093C10086E0809377
:107E2000C20080E18093C4008EE0C9D0259A86E02C
:107E300020E33CEF91E0309385002093840096BBD3
:107E4000B09BFECF1D9AA8958150A9F7CC24DD24C4
:107E500088248394B5E0AB2EA1E19A2EF3E0BF2EE7
:107E6000A2D0813461F49FD0082FAFD0023811F036
:107E7000013811F484E001C083E08DD089C08234E0
:107E800011F484E103C0853419F485E0A6D080C0E4
:107E9000853579F488D0E82EFF2485D0082F10E0AE
:107EA000102F00270E291F29000F111F8ED06801E7
:107EB0006FC0863521F484E090D080E0DECF843638
:107EC00009F040C070D06FD0082F6DD080E0C81688
:107ED00080E7D80618F4F601B7BEE895C0E0D1E017
:107EE00062D089930C17E1F7F0E0CF16F0E7DF06D8
:107EF00018F0F601B7BEE89568D007B600FCFDCFD4
:107F0000A601A0E0B1E02C9130E011968C91119780
:107F100090E0982F8827822B932B1296FA010C0160
:107F200087BEE89511244E5F5F4FF1E0A038BF0790
:107F300051F7F601A7BEE89507B600FCFDCF97BE46
:107F4000E89526C08437B1F42ED02DD0F82E2BD052
:107F50003CD0F601EF2C8F010F5F1F4F84911BD097
:107F6000EA94F801C1F70894C11CD11CFA94CF0C13
:107F7000D11C0EC0853739F428D08EE10CD085E9AC
:107F80000AD08FE07ACF813511F488E018D01DD067
:107F900080E101D065CF982F8091C00085FFFCCF94
:107FA0009093C60008958091C00087FFFCCF809118
:107FB000C00084FD01C0A8958091C6000895E0E648
:107FC000F0E098E1908380830895EDDF803219F02E
:107FD00088E0F5DFFFCF84E1DECF1F93182FE3DFCA
:107FE0001150E9F7F2DF1F91089580E0E8DFEE27F6
:047FF000FF270994CA
:027FFE00040479
:0400000300007E007B
:00000001FF
