:100000000C9462000C948A000C948A000C948A0070
:100010000C948A000C948A000C948A000C948A0038
:100020000C948A000C948A000C948A000C948A0028
:100030000C948A000C948A000C948A000C948A0018
:100040000C9408020C948A000C9478020C945202CE
:100050000C948A000C948A000C948A000C948A00F8
:100060000C948A000C948A000000000024002700F1
:100070002A000000000023002600290000000000E4
:10008000250028002B0004040404040404040202D4
:100090000202020203030303030301020408102007
:1000A0004080010204081020010204081020000012
:1000B0000008000201000003040700000000000027
:1000C0000000C70311241FBECFEFD8E0DEBFCDBFB5
:1000D00011E0A0E0B1E0E6E4F8E002C005900D9286
:1000E000A631B107D9F721E0A6E1B1E001C01D9228
:1000F000AD3BB207E1F710E0C2E6D0E004C02197C3
:10010000FE010E941604C136D107C9F70E94AA0257
:100110000C9421040C940000833081F028F4813089
:1001200099F08230A1F008958730A9F08830B9F0B5
:100130008430D1F4809180008F7D03C08091800055
:100140008F7780938000089584B58F7702C084B53F
:100150008F7D84BD08958091B0008F7703C080911A
:10016000B0008F7D8093B00008951F93CF93DF93ED
:10017000282F30E0F901E255FF4F8491F901E6564E
:10018000FF4FD491F901EA57FF4FC491CC23C1F03E
:10019000162F81110E948C00EC2FF0E0EE0FFF1F54
:1001A000E458FF4FA591B4919FB7F894111104C082
:1001B0008C91D095D82302C0EC91DE2BDC939FBFAD
:1001C000DF91CF911F910895CF92DF92EF92FF922E
:1001D0000F931F93CF93DF936C017A018B01C0E0E3
:1001E000D0E0CE15DF0581F0D8016D918D01D601EB
:1001F000ED91FC910190F081E02DC6010995892BCC
:1002000011F02196EECF7E01C701DF91CF911F91B2
:100210000F91FF90EF90DF90CF900895089580E0C8
:1002200090E00895FC01538D448D252F30E0842FFC
:1002300090E0821B930B541710F0CF96089501970E
:100240000895FC01918D828D981761F0828DDF01F8
:10025000A80FB11D5D968C91928D9F5F9F73928FB9
:1002600090E008958FEF9FEF0895FC01918D828DAE
:10027000981731F0828DE80FF11D858D90E008957B
:100280008FEF9FEF0895FC01918D228D892F90E0D3
:10029000805C9F4F821B91098F739927089580E29C
:1002A00091E00E94430121E0892B09F420E0822F94
:1002B0000895FC01848DDF01A80FB11DA35ABF4F23
:1002C0002C91848D90E001968F739927848FA68955
:1002D000B7892C93A089B1898C91837080648C93A9
:1002E000938D848D981306C00288F389E02D808158
:1002F0008F7D80830895EF92FF920F931F93CF938A
:10030000DF93EC0181E0888F9B8D8C8D981305C065
:10031000E889F989808185FD26C0F62E0B8D10E0D5
:100320000F5F1F4F0F731127E02E8C8DE8120CC04A
:100330000FB607FCFACFE889F989808185FFF5CFF0
:10034000CE010E945901F1CF8B8DFE01E80FF11D06
:10035000E35AFF4FF0829FB7F8940B8FEA89FB892D
:10036000808180620AC09FB7F894EE89FF8960831C
:10037000E889F98980818370806480839FBF81E0F0
:1003800090E0DF91CF911F910F91FF90EF90089532
:10039000CF93DF93EC01888D8823C9F0EA89FB892C
:1003A000808185FD05C0A889B9898C9186FD0FC023
:1003B0000FB607FCF5CF808185FFF2CFA889B989F8
:1003C0008C9185FFEDCFCE010E945901E7CFDF91DF
:1003D000CF91089580E090E0892B29F00E944F0191
:1003E00081110C9400000895009769F0FC010190C0
:1003F0000020E9F73197AF01481B590BBC0180E29F
:1004000091E00C94E40080E090E008950E941C04C8
:100410001F920F920FB60F9211242F933F938F9339
:100420009F93AF93BF9380911C0190911D01A09168
:100430001E01B0911F0130911B0123E0230F2D37C6
:1004400020F40196A11DB11D05C026E8230F0296D8
:10045000A11DB11D20931B0180931C0190931D01D0
:10046000A0931E01B0931F01809117019091180174
:10047000A0911901B0911A010196A11DB11D80939F
:10048000170190931801A0931901B0931A01BF911D
:10049000AF919F918F913F912F910F900FBE0F9031
:1004A0001F9018951F920F920FB60F9211242F9341
:1004B0003F934F935F936F937F938F939F93AF93EC
:1004C000BF93EF93FF9380E291E00E945901FF9167
:1004D000EF91BF91AF919F918F917F916F915F91BC
:1004E0004F913F912F910F900FBE0F901F90189535
:1004F0001F920F920FB60F9211242F938F939F93F9
:10050000EF93FF93E0913001F09131018081E09110
:100510003601F091370182FD12C09081809139013E
:100520008F5F8F7320913A01821751F0E09139016A
:10053000F0E0E05EFE4F958F8093390101C080812D
:10054000FF91EF919F918F912F910F900FBE0F9080
:100550001F901895CF93DF93CDB7DEB7A1970FB655
:10056000F894DEBF0FBECDBF789484B5826084BDA1
:1005700084B5816084BD85B5826085BD85B58160A7
:1005800085BD80916E00816080936E001092810025
:1005900080918100826080938100809181008160E0
:1005A00080938100809180008160809380008091A1
:1005B000B10084608093B1008091B000816080932D
:1005C000B00080917A00846080937A0080917A00F4
:1005D000826080937A0080917A00816080937A00B3
:1005E00080917A00806880937A001092C10007EAB7
:1005F00010E0F801249153E9E52E50E0F52EF701C3
:1006000084918823C9F090E0880F991FFC01E85974
:10061000FF4FA591B491FC01E458FF4F45915491CF
:100620003FB7F8949C91822F809598239C93FA0170
:100630009081892380833FBFE6EAF0E02491E2E9DC
:10064000F0E08491882399F090E0880F991FFC01D5
:10065000E859FF4FA591B491FC01E458FF4F8591F3
:1006600094918FB7F894EC91E22BEC938FBFE091CB
:100670003001F091310182E08083E0912C01F09112
:100680002D011082E0912E01F0912F018FEC8083DB
:1006900010923801E0913401F091350186E08083B9
:1006A000E0913201F0913301808180618083E0919B
:1006B0003201F0913301808188608083E0913201C2
:1006C000F0913301808180688083E0913201F09164
:1006D000330180818F7D80839BEBA92E90E0B92E22
:1006E0002AE0422E512C612C712CF5018491F801E5
:1006F000D490F701C490CC20A1F081110E948C000D
:10070000EC2DF0E0EE0FFF1FEE58FF4FA591B491D6
:100710008C91D82291E080E009F490E0292F382FC5
:1007200002C020E030E0822F817080931601032EFA
:10073000000C440B550B19A26E01F1E2CF0ED11C37
:10074000CA01B901A30192010E94F403605DF601A0
:1007500062936F01211531054105510589F7CF01DC
:100760000E94F40142E050E062E171E080E291E039
:100770000E94E40080911601882311F061E001C01D
:1007800060E08CE00E94B5000E94EA01AECFE0E29A
:10079000F1E01382128288EE93E0A0E0B0E084835F
:1007A0009583A683B78384E091E09183808385EC71
:1007B00090E09587848784EC90E09787868780EC2B
:1007C00090E0918B808B81EC90E0938B828B82EC1C
:1007D00090E0958B848B86EC90E0978B868B118EC6
:1007E000128E138E148E0895A1E21A2EAA1BBB1B23
:1007F000FD010DC0AA1FBB1FEE1FFF1FA217B307ED
:10080000E407F50720F0A21BB30BE40BF50B661F02
:10081000771F881F991F1A9469F7609570958095C6
:1008200090959B01AC01BD01CF010895EE0FFF1F14
:100830000590F491E02D099481E090E0F8940C94F7
:060840002104F894FFCF33
:10084600000000007B01E4001201C8014301210100
:0608560035010D0A00004F
:00000001FF
